:100000006F00A01E000000006A02000068020000ED
:1000100000000000000000000000000000000000E0
:1000200000000000000000000000000000000000D0
:1000300068020000000000006802000000000000EC
:100040006802000068020000680200006802000008
:1000500068020000680200006802000068020000F8
:1000600068020000680200006802000068020000E8
:1000700068020000680200006802000068020000D8
:1000800068020000680200006802000068020000C8
:100090006802000068020000680200000000000022
:1000A0006F00A014000000006A0200006802000057
:1000B0000000000000000000000000000000000040
:1000C0000000000000000000000000000000000030
:1000D000680200000000000068020000000000004C
:1000E0006802000068020000680200006802000068
:1000F0006802000068020000680200006802000058
:100100006802000068020000680200006802000047
:100110006802000068020000680200006802000037
:100120006802000068020000680200006802000027
:100130006802000068020000680200000000000081
:10014000511126C022C206C4828282441244A240B7
:10015000310182802A86014593F6150091C23295BD
:1001600085810606F5F9828000000000634E0502D5
:1001700063C305042E86AA857D5515C2854663781E
:10018000B6006356C00006068606E36CB6FE01455F
:1001900063E4C500918D558D85820582F5FA8280D4
:1001A0008682C93F2E8582823305A04063D7050031
:1001B000B305B040C1B7B305B0408682653F330593
:1001C000A0408282868263C70500634905005D37CF
:1001D0002E858282B305B040E35B05FE3305A04067
:1001E000513F3305B0408282000097010020938187
:1001F0006166138101FB13050008731005308D46FD
:1002000017050000130505E0558D731055301705CF
:100210000020130525E49385C19501466356B5007A
:1002200010C11105E34EB5FE171500001305052496
:1002300097050020938505DD17060020130686E14B
:100240006388C500144194C111059105E39AC5FE68
:10025000B7F700E0154798C3B7170000938747BE6C
:10026000739017347300203001A0371702401C47E9
:10027000B7068000D58F1CC7B71602409C4E116789
:1002800013070702D98F9CCEB717014003A7074079
:10029000B70610FFFD16758F23A0E74003A70740A0
:1002A000B70690004205558F23A0E740B7470140AD
:1002B00021472396E78023980780239A078041816E
:1002C0002394A78003D7C7808966558F2396E7803C
:1002D0008280B7F700E09C4737F700E03E951C4767
:1002E000898FE3CE07FE8280EFF29FE5B7270240B9
:1002F000054798C3B71702403707080123A2070034
:100300001307170898C337079F0098C7371702408D
:100310001C4393966700E3DD06FE5C43B71602407C
:10032000F19B93E727005CC32147DC42B18BE39E3E
:10033000E7FE1305101A893709BDB7170240D843E5
:10034000C1769386F67F758FD8C3984FB706004065
:10035000FD161367072098CFD84713670720D8C723
:10036000D8471377F7DFD8C7B727014093870740EF
:10037000984B23A80700984B558F98CBD84723A6B6
:100380000700D847B7060400FD16558FD8C7984711
:10039000B7060E00558F98C723A6070223A80702A9
:1003A00023AA07029847B72601401367170098C78A
:1003B00098471367870098C703A78640218B6DFF76
:1003C00003A786401367470023A4E6403727014070
:1003D00083278740918BEDFF8280EFF27FD6372411
:1003E0000140232AA442096513050558DD358327FA
:1003F00084403707400013040440D98F1CC43727BA
:10040000014083270740898BEDDF0325C744420560
:10041000418125BBEFF2DFD2B707002003C64703B7
:1004200013D7850093171500111113F3F50F1377E8
:10043000F70F93D4050193828188B385A700AE920C
:100440002AC8B2853A851ACA3EC616C432C23AC014
:1004500015330247AA851375F50F93F4F40F13842F
:1004600081881246A242B247C24652436373A70034
:10047000BA853387D7002297A380B2001A85B28548
:1004800036C83EC63AC432C21AC0ED310243AA850C
:100490001375F50F12462247B247C2466373A30095
:1004A0009A85B6970CA32685B2853E94E131AA873A
:1004B0001375F50F63F3A400A6873CA0710171B119
:1004C000EFF21FC871110144231001002301010044
:1004D00082451375F40F0504353F93070004E315B7
:1004E000F4FE11019DB1EFF2BFC541112A872EC65E
:1004F0000144B30787009C238DCBB944818C8D4583
:1005000026853AC432C07D3902468D45B307C50001
:10051000268532C23EC0993982470E05B2453E95C6
:100520001375F50FC53D224712460504BD47E3127A
:10053000F4FC410119B9EFF2BFC00945793D31B171
:10054000EFF21FC0CD3F11B1EFF29FBF2E865111C8
:100550002A87014481448145634AC4008146268537
:10056000EF005005420541813101C5B632C43AC29F
:100570002EC0029782452695B3369500AA84316530
:10058000B695130505B805042EC06204993361843D
:10059000224612478245C9B71307B026AA87636A65
:1005A000A7001307C026098FBD46795563C9E60029
:1005B00082801307B0277955636DF708828013078F
:1005C00010166369F700130720161D8F755563CC4D
:1005D000E6008280130710177555637BF706130733
:1005E0001020636AF700930620209D8E3D477155C9
:1005F0006349D7008280130710217155636DF7029C
:1006000082809306A01A63E9F6009306B01A9D8EC5
:100610006D556342D70282809306A01B6D5563F926
:10062000F6029306401D63E0F6029306501D9D8E70
:100630005D55635FD7009306B02A9D8E3D4759559F
:100640006343D70282801307401E5D55E365F7FEC2
:1006500082801307A02AE370F7FE1307A02B5955D9
:100660006363F70282809306302363E9F600930602
:1006700040239D8E5555634BD7008280130730244D
:100680005555E377F7FC93B7071515A8930640185F
:1006900063E9F600930650189D8E69556347D700AD
:1006A0008280130740196955E9BF1307F013E36C03
:1006B000F7FC13050014B307F54093A70701655530
:1006C000C1FB7D5571B7938781949A23ED7693860C
:1006D0000640137517003305A040758D0583398DCD
:1006E000420541818AA38280EFF29FA53707FFBFB1
:1006F000AA84130707803715024003238501269734
:10070000298791423397E2003367670018CD88400C
:10071000139325003D47331767001347F7FF698F91
:100720000945054433156500B317B4003111498FED
:10073000C10598C03EC03314B400B307D60080C8CA
:100740003EC292476315F60080C85101FDBA1822D7
:10075000A14693158701E18532C83AC636C463D3F2
:100760000502824765459CC8AD36054580C895366B
:10077000A246324742460607FD161377F70FF1FAF5
:100780000506C1B7F325003093F575F77390053072
:1007900082479CC8010001000100010080C8F325C8
:1007A000003093E58508739005303D451D3642467F
:1007B0003247A246C9B7EFF2BF98370400201304AE
:1007C000440511371375F503060522950307050047
:1007D00093070003E317F7FE930710061EA1B5B2B7
:1007E000EFF21F9637070020930747059386070807
:1007F000130747051306000390A3A380070089078A
:10080000E39CD7FE9306F002A38BD1949306D0020B
:10081000238BD194930780F6231DF704B70775FF48
:10082000938727F67CCF23850194239C019461371D
:1008300029BAEFF2FF907111613183C7518881CBE2
:10084000B707002083A587041305F003E1363715A9
:100850000140138681889306000C894513050580A5
:10086000613526C0B70400200144938444059317E2
:100870001400A69783870700130720061375F40F4B
:10088000638DE704634BF700130710066381E706E7
:10089000B707002083A5070529A8130780066383EF
:1008A000E70413074007E395E7FEB707002083A599
:1008B00047048D3605049307F003E31AF4FA8247E0
:1008C000371501409306000C13868188894513056E
:1008D0000580193D11016FF05F87B707002083A5E0
:1008E000C703C1BFB707002083A50704D9B7B7075F
:1008F000002083A5070075BFEFF29F84B7040000B6
:1009000095452A841385045481317931F95763154B
:10091000F500E1576317F4049545138504542D3110
:10092000A539F5576315F500A147631EF4029545F7
:100930001385045411398D31F1576315F500FD57B6
:10094000631DF400954513850454FD3EB131ED5708
:100950006316F5008547631AF400054422856FF09D
:10096000CFFE2144E5BF6154D5BF7D54C5BF93760A
:10097000F50F9307F0032A8763EFD704B70700202A
:10098000937675009387470581EE838661950545CB
:100990008606BE960386160085466310D6028280C0
:1009A0001D46639CC6008386619505458606BE96F6
:1009B00003861600FD566301D6020607BA978387A1
:1009C00007001307200605456388E700138587F9AC
:1009D000133515008280054582808387619537072E
:1009E000002013064705139317001A9608B23E9588
:1009F0001375F50F13032006931785012300660076
:100A0000E187938661951307470563D507061305AC
:100A1000050493178501E187139517009CA23A9569
:100A2000930780061CA1B1E5838771951305000328
:100A300093867195139617003A968305160008A2BF
:100A4000AE9793F7F70F139687016186634B060203
:100A500090A2838706001306F0036355F600938780
:100A600007FC9CA28387060086073E9793074007F2
:100A70001CA382801306F003E350F6FA130505FC6D
:100A800049BF938707049CA2E9B7EFF26FEB71119E
:100A9000053C83C7A194A945370400203E853EC08C
:100AA000EFF04FED1375F50F13044400B704002069
:100AB0000A059384840322958C400841114625340D
:100AC0008247A9453E85EFF0AFED1375F50F0A0596
:100AD0002A948C400840014639343715014093066A
:100AE000000C13868188894513050580F53E1101A8
:100AF0006FF0AFE5EFF2CFE46111D9328147138790
:100B0000C194B306F700942236C0D5C2B7040020C2
:100B1000938484038C401305F0033EC2EFF09F8F53
:100B20008C401305E00337040020EFF0BF8E8246AF
:100B3000A945130444003685EFF0CFE31375F50F94
:100B40000A0522958C4008411146713A8246A94512
:100B50003685EFF0EFE41375F50F0A052A948C4003
:100B600008400146EFF03F98371401409306000C0F
:100B700013868188894513050480BD3637A54A044C
:100B800013050520EFF0EFF4EFF09F939306000CB0
:100B900013868188894513050480B93637C5DB0083
:100BA000130505A0EFF0EFF21387C1949247850774
:100BB000A946E398D7F421016FF02FD9EFF24FD86F
:100BC0003704002013043405082003C7A194938739
:100BD000C194AA9798A3A9450505EFF0AFDE08A038
:100BE0006FF0AFD6EFF2CFD56111EFF0EFEFEFF08E
:100BF000CFF48567938747232394F194D53615392D
:100C00003775DC02130505C0EFF0AFEC23820188D5
:100C1000FD5437040000954513050454EFF0DF92AE
:100C2000EFF09F97D9576318F502954513050454C3
:100C3000EFF09F91EFF05F96D957630DF50C938716
:100C40005188982337454900130505E013471700DD
:100C500098A3EFF00FE8268545319387819592237D
:100C6000AA849306160096A383C7619532C2AA97F9
:100C7000E207E1873E853EC0DD39138781958247D3
:100C8000124645C18547138741881CA3053FF53BA4
:100C900037E5B80513050580EFF0AFE3B75407005B
:100CA000954513050454EFF03F8AEFF0FF8EE957A6
:100CB0006313F502954513050454EFF0FF88EFF038
:100CC000BF8DE9576303F50E35353775DC02130523
:100CD00005C0EFF00FE013850430EFF08FDF95458E
:100CE00013050454EFF05F86EFF01F8BDD57E31917
:100CF000F5FA954513050454EFF01F85EFF0DF89F1
:100D0000DD57E31DF5EE3755070013050530EFF00D
:100D10004FDCC5B737A50E0013050560EFF06FDB9C
:100D200029B7B7060020938646058607B6978387BE
:100D30000700930610069385F7F993B51500639C99
:100D4000D7009387A194942371162EC0850612A311
:100D500094A39534824526854931E13C83C7518867
:100D6000138781951A2399C793172700BA9713976A
:100D7000070141839307401F998FC207C18313075F
:100D800040063E8563F4E70013054006B165420561
:100D9000938505B84181EFF0EFBBEFF08FD39387D8
:100DA00041889C23E38907E6D5B513850430EFF02D
:100DB0004FD209B7130141FD06D422D226D02A878B
:100DC000AE8763910620B68432832A8463FEC50E03
:100DD000C166AE826363D626B70600016367D64854
:100DE00093558601E1449706000093862658AE96F7
:100DF0009422B69493060002858E99CAB397D700C1
:100E0000B35497003313D600B3E2F4003314D70081
:100E100093540301A68516851AC216C0EFF04FB889
:100E2000124382422AC693170301C183A685168501
:100E30001AC43EC0EFF00FB4AA852AC20245EFF0F3
:100E40006FB132479357040192464207D98F22432C
:100E500063FAA7009A971387F6FF63E4670063ECD1
:100E6000A742BA86898FA6853E8536C61AC83EC473
:100E7000EFF00FB3A247A6852AC23E85EFF08FAFF1
:100E8000AA85AA84024542044180EFF0AFAC9242A9
:100E9000B246C20233E48200637CA40042439387DB
:100EA000F4FF1A9463656400F9146363A400BE84BC
:100EB0009397060133E597008146B685A2501254F8
:100EC00082541301C102828011EA2EC22AC08145D8
:100ED0000545EFF02FAA924702472A83C166636552
:100EE000D314B70600016366D33813568301E14477
:100EF0009706000093868647B29683C206001306C3
:100F00000002A6923306564063120614131703011B
:100F10004183B3876740935403013AC08546A68551
:100F20003E8536C81AC63EC2EFF08FA792472AC444
:100F3000A6853E85EFF00FA482452AC2EFF08FA16F
:100F400022479357040132434207D98FC24663FBBD
:100F5000A70012469A971307F6FF63E4670063EF52
:100F6000A7323AC2898FA6853E8536C81ACA3EC6C0
:100F7000EFF00FA3B247A6852AC43E85EFF08F9FFE
:100F80008245AA844204EFF0EF9CA2424180C2460F
:100F9000C20233E48200637CA40052439387F4FFCF
:100FA0001A9463656400F9146363A400BE849247D5
:100FB000C20733E59700B685A2501254825413013C
:100FC000C102828063E1D504C16563E7B604B70559
:100FD000000163E8B62893D5860161431705000038
:100FE0001305C5382E950C219A951303000233037F
:100FF000B340631D031063E2F628B337C70013C57F
:101000001700814619A081460145B685A2501254A9
:1010100082541301C10282809305F00F63F2D5263A
:1010200093D5860021435DBF9306F00F1A86E3F146
:1010300066EC13568300A14465BD9306F00FB2859C
:10104000E3F3C6DA93558600A14471BB3313C300A2
:10105000B3D6570093540301B397C700B352570058
:101060003314C70013170301B3E7F2004183A685C9
:1010700036853EC21AC83AC036C4EFF06F92A24617
:101080002AC6A6853685EFF0EF8EAA852AC40245CA
:10109000EFF04F8C32469247A2464206C183D18F71
:1010A000424363FBA7009A971387F6FF63E3671E2B
:1010B00063F1A71EF9169A973387A740A6853A854C
:1010C00036CA1AC83AC4EFF0AF8D22472AC6A685A1
:1010D0003A85EFF02F8AAA852AC40245EFF08F8760
:1010E000B24730822247C207D18F4243D24663FBC8
:1010F000A7009A971306F7FF63E9671863F7A71825
:1011000079179A97C206898FD98E11BD3355B600CB
:10111000B3966600C98EB353B7003ACC3317660056
:1011200013D40601B3D4B7003AC4B397670013973A
:101130000601B3E7F3004183A28526853EC01ACAA3
:1011400036C83AC2EFF0CF852AC6A2852685EFF0D1
:101150006F82AA85AA841245EFE0DFFFB24382477F
:10116000C246C20313D6070133E6C30052436247A7
:10117000637BA60036969385F4FF636AD610637886
:10118000A610F9143696098EA28532853ACC1ACA71
:1011900036CE32C8EFF0CF804246A2852AC63285CD
:1011A000EFE05FFDAA852A841245EFE0BFFAB24264
:1011B00030805243C20233E6C2006247637CA6001D
:1011C000F2469305F4FF3696636FD60A637DA60A4E
:1011D00079143696C1669382F6FFA246939704016E
:1011E000C18F33F45700098EB3F2560032C293D345
:1011F000070193D4060122859685EFE0BFF52AC04A
:10120000A6852285EFE01FF52A8496851E85EFE0EE
:101210007FF4AA82A6851E85EFE0DFF3824616944E
:10122000C182369463745400C166369593560401A6
:101230003695924663E3A6026385A6003E85814605
:10124000E9B3416682457D16B376C400C2066D8E51
:1012500033176700B296E373D7FE1385F7FF814615
:101260006DB393D50601414395BB93550601C14427
:101270009DBE13560301C144A5B98146054571B30E
:10128000B6850143A1BB2E84B1B73287A5BDAE841C
:10129000DDBDBA8615B5F9169A97E9B61307E6FFCC
:1012A0003AC29A97C1B10000010101010001010099
:1012B0000101000101010100010100000100000124
:1012C0000000010001010100010101000001010114
:1012D0000101000001010100010101000001010103
:1012E00001000001010101000100010100010101F3
:1012F00001000001000001000101010100000101E5
:1013000001000001010101000101010100000101D2
:1013100001010001010101000101010000010000C3
:1013200001000001000001000101010100010101B3
:1013300001010001010101000101010100010101A0
:101340000100000101010100010100010001010093
:101350000101000101010000010001010001000183
:101360000001000101000100000102020303030368
:101370000404040404040404050505050505050525
:101380000505050505050505060606060606060605
:1013900006060606060606060606060606060606ED
:1013A00006060606060606060707070707070707D5
:1013B00007070707070707070707070707070707BD
:1013C00007070707070707070707070707070707AD
:1013D000070707070707070707070707070707079D
:1013E0000707070707070707080808080808080885
:1013F000080808080808080808080808080808086D
:10140000080808080808080808080808080808085C
:10141000080808080808080808080808080808084C
:10142000080808080808080808080808080808083C
:10143000080808080808080808080808080808082C
:10144000080808080808080808080808080808081C
:10145000080808080808080808080808080808080C
:08146000080808080808080844
:1014680000FF0000A8120000B8120000C812000017
:10147800D8120000E8120000F8120000081300005B
:101488001813000028130000381300005813000038
:10149800481300000A000000375A0C00FF333300DD
:1014A8002D002D000C37330000FFFF000000000066
:04000003000000A059
:00000001FF
